:0100000003FC
:010001000CF2
:0100020001FC
:0100030013E9
:010004006F8C
:01000500609A
:010006000AEF
:0100070006F2
:01000800F007
:01000900F006
:01000A00F005
:01000B00F004
:01000C00F003
:01000D00F002
:01000E00F001
:01000F00F000
:01001000F0FF
:01001100F0FE
:01001200F0FD
:01001300F0FC
:01001400F0FB
:01001500F0FA
:01001600F0F9
:01001700F0F8
:01001800F0F7
:01001900F0F6
:01001A00F0F5
:01001B00F0F4
:01001C00F0F3
:01001D00F0F2
:01001E00F0F1
:01001F00F0F0
:01002000F0EF
:01002100F0EE
:01002200F0ED
:01002300F0EC
:01002400F0EB
:01002500F0EA
:01002600F0E9
:01002700F0E8
:01002800F0E7
:01002900F0E6
:01002A00F0E5
:01002B00F0E4
:01002C00F0E3
:01002D00F0E2
:01002E00F0E1
:01002F00F0E0
:01003000F0DF
:01003100F0DE
:01003200F0DD
:01003300F0DC
:01003400F0DB
:01003500F0DA
:01003600F0D9
:01003700F0D8
:01003800F0D7
:01003900F0D6
:01003A00F0D5
:01003B00F0D4
:01003C00F0D3
:01003D00F0D2
:01003E00F0D1
:01003F00F0D0
:01004000F0CF
:01004100F0CE
:01004200F0CD
:01004300F0CC
:01004400F0CB
:01004500F0CA
:01004600F0C9
:01004700F0C8
:01004800F0C7
:01004900F0C6
:01004A00F0C5
:01004B00F0C4
:01004C00F0C3
:01004D00F0C2
:01004E00F0C1
:01004F00F0C0
:01005000F0BF
:01005100F0BE
:01005200F0BD
:01005300F0BC
:01005400F0BB
:01005500F0BA
:01005600F0B9
:01005700F0B8
:01005800F0B7
:01005900F0B6
:01005A00F0B5
:01005B00F0B4
:01005C00F0B3
:01005D00F0B2
:01005E00F0B1
:01005F00F0B0
:01006000F0AF
:01006100F0AE
:01006200F0AD
:01006300F0AC
:01006400F0AB
:01006500F0AA
:01006600F0A9
:01006700F0A8
:01006800F0A7
:01006900F0A6
:01006A00F0A5
:01006B00F0A4
:01006C00F0A3
:01006D00F0A2
:01006E00F0A1
:01006F00F0A0
:01007000F09F
:01007100F09E
:01007200F09D
:01007300F09C
:01007400F09B
:01007500F09A
:01007600F099
:01007700F098
:01007800F097
:01007900F096
:01007A00F095
:01007B00F094
:01007C00F093
:01007D00F092
:01007E00F091
:01007F00F090
:01008000F08F
:01008100F08E
:01008200F08D
:01008300F08C
:01008400F08B
:01008500F08A
:01008600F089
:01008700F088
:01008800F087
:01008900F086
:01008A00F085
:01008B00F084
:01008C00F083
:01008D00F082
:01008E00F081
:01008F00F080
:01009000F07F
:01009100F07E
:01009200F07D
:01009300F07C
:01009400F07B
:01009500F07A
:01009600F079
:01009700F078
:01009800F077
:01009900F076
:01009A00F075
:01009B00F074
:01009C00F073
:01009D00F072
:01009E00F071
:01009F00F070
:0100A000F06F
:0100A100F06E
:0100A200F06D
:0100A300F06C
:0100A400F06B
:0100A500F06A
:0100A600F069
:0100A700F068
:0100A800F067
:0100A900F066
:0100AA00F065
:0100AB00F064
:0100AC00F063
:0100AD00F062
:0100AE00F061
:0100AF00F060
:0100B000F05F
:0100B100F05E
:0100B200F05D
:0100B300F05C
:0100B400F05B
:0100B500F05A
:0100B600F059
:0100B700F058
:0100B800F057
:0100B900F056
:0100BA00F055
:0100BB00F054
:0100BC00F053
:0100BD00F052
:0100BE00F051
:0100BF00F050
:0100C000F04F
:0100C100F04E
:0100C200F04D
:0100C300F04C
:0100C400F04B
:0100C500F04A
:0100C600F049
:0100C700F048
:0100C800F047
:0100C900F046
:0100CA00F045
:0100CB00F044
:0100CC00F043
:0100CD00F042
:0100CE00F041
:0100CF00F040
:0100D000F03F
:0100D100F03E
:0100D200F03D
:0100D300F03C
:0100D400F03B
:0100D500F03A
:0100D600F039
:0100D700F038
:0100D800F037
:0100D900F036
:0100DA00F035
:0100DB00F034
:0100DC00F033
:0100DD00F032
:0100DE00F031
:0100DF00F030
:0100E000F02F
:0100E100F02E
:0100E200F02D
:0100E300F02C
:0100E400F02B
:0100E500F02A
:0100E600F029
:0100E700F028
:0100E800F027
:0100E900F026
:0100EA00F025
:0100EB00F024
:0100EC00F023
:0100ED00F022
:0100EE00F021
:0100EF00F020
:0100F000F01F
:0100F100F01E
:0100F200F01D
:0100F300F01C
:0100F400F01B
:0100F500F01A
:0100F600F019
:0100F700F018
:0100F800F017
:0100F900F016
:0100FA00F015
:0100FB00F014
:0100FC00F013
:0100FD00F012
:0100FE00F011
:0100FF00F010
:00000001FF
